{
  "contractName": "Arbitrage",
  "abi": [
    {
      "inputs": [
        {
          "internalType": "address",
          "name": "_pancakeFactory",
          "type": "address"
        },
        {
          "internalType": "address",
          "name": "_bakeryRouter",
          "type": "address"
        }
      ],
      "stateMutability": "nonpayable",
      "type": "constructor"
    },
    {
      "inputs": [],
      "name": "bakeryRouter",
      "outputs": [
        {
          "internalType": "contract IUniswapV2Router02",
          "name": "",
          "type": "address"
        }
      ],
      "stateMutability": "view",
      "type": "function",
      "constant": true
    },
    {
      "inputs": [],
      "name": "pancakeFactory",
      "outputs": [
        {
          "internalType": "address",
          "name": "",
          "type": "address"
        }
      ],
      "stateMutability": "view",
      "type": "function",
      "constant": true
    },
    {
      "inputs": [
        {
          "internalType": "address",
          "name": "token0",
          "type": "address"
        },
        {
          "internalType": "address",
          "name": "token1",
          "type": "address"
        },
        {
          "internalType": "uint256",
          "name": "amount0",
          "type": "uint256"
        },
        {
          "internalType": "uint256",
          "name": "amount1",
          "type": "uint256"
        }
      ],
      "name": "startArbitrage",
      "outputs": [],
      "stateMutability": "nonpayable",
      "type": "function"
    },
    {
      "inputs": [
        {
          "internalType": "address",
          "name": "_sender",
          "type": "address"
        },
        {
          "internalType": "uint256",
          "name": "_amount0",
          "type": "uint256"
        },
        {
          "internalType": "uint256",
          "name": "_amount1",
          "type": "uint256"
        },
        {
          "internalType": "bytes",
          "name": "_data",
          "type": "bytes"
        }
      ],
      "name": "pancakeCall",
      "outputs": [],
      "stateMutability": "nonpayable",
      "type": "function"
    }
  ],
  "bytecode": "0x608060405234801561001057600080fd5b506040516117253803806117258339818101604052604081101561003357600080fd5b810190808051906020019092919080519060200190929190505050816000806101000a81548173ffffffffffffffffffffffffffffffffffffffff021916908373ffffffffffffffffffffffffffffffffffffffff16021790555080600160006101000a81548173ffffffffffffffffffffffffffffffffffffffff021916908373ffffffffffffffffffffffffffffffffffffffff1602179055505050611645806100e06000396000f3fe608060405234801561001057600080fd5b506004361061004c5760003560e01c806376e9d0661461005157806384800812146100c9578063d8f3670514610176578063e0f1c9c5146101c0575b600080fd5b6100c76004803603608081101561006757600080fd5b81019080803573ffffffffffffffffffffffffffffffffffffffff169060200190929190803573ffffffffffffffffffffffffffffffffffffffff169060200190929190803590602001909291908035906020019092919050505061020a565b005b610174600480360360808110156100df57600080fd5b81019080803573ffffffffffffffffffffffffffffffffffffffff16906020019092919080359060200190929190803590602001909291908035906020019064010000000081111561013057600080fd5b82018360208201111561014257600080fd5b8035906020019184600183028401116401000000008311171561016457600080fd5b909192939192939050505061050e565b005b61017e610ce1565b604051808273ffffffffffffffffffffffffffffffffffffffff1673ffffffffffffffffffffffffffffffffffffffff16815260200191505060405180910390f35b6101c8610d07565b604051808273ffffffffffffffffffffffffffffffffffffffff1673ffffffffffffffffffffffffffffffffffffffff16815260200191505060405180910390f35b60008060009054906101000a900473ffffffffffffffffffffffffffffffffffffffff1673ffffffffffffffffffffffffffffffffffffffff1663e6a4390586866040518363ffffffff1660e01b8152600401808373ffffffffffffffffffffffffffffffffffffffff1673ffffffffffffffffffffffffffffffffffffffff1681526020018273ffffffffffffffffffffffffffffffffffffffff1673ffffffffffffffffffffffffffffffffffffffff1681526020019250505060206040518083038186803b1580156102de57600080fd5b505afa1580156102f2573d6000803e3d6000fd5b505050506040513d602081101561030857600080fd5b81019080805190602001909291905050509050600073ffffffffffffffffffffffffffffffffffffffff168173ffffffffffffffffffffffffffffffffffffffff1614156103be576040517f08c379a00000000000000000000000000000000000000000000000000000000081526004018080602001828103825260188152602001807f5468697320706f6f6c20646f6573206e6f74206578697374000000000000000081525060200191505060405180910390fd5b8073ffffffffffffffffffffffffffffffffffffffff1663022c0d9f8484306040518060400160405280600981526020017f6e6f7420656d70747900000000000000000000000000000000000000000000008152506040518563ffffffff1660e01b8152600401808581526020018481526020018373ffffffffffffffffffffffffffffffffffffffff1673ffffffffffffffffffffffffffffffffffffffff16815260200180602001828103825283818151815260200191508051906020019080838360005b838110156104a0578082015181840152602081019050610485565b50505050905090810190601f1680156104cd5780820380516001836020036101000a031916815260200191505b5095505050505050600060405180830381600087803b1580156104ef57600080fd5b505af1158015610503573d6000803e3d6000fd5b505050505050505050565b6060600267ffffffffffffffff8111801561052857600080fd5b506040519080825280602002602001820160405280156105575781602001602082028036833780820191505090505b5090506000808614610569578561056b565b845b905060003373ffffffffffffffffffffffffffffffffffffffff16630dfe16816040518163ffffffff1660e01b815260040160206040518083038186803b1580156105b557600080fd5b505afa1580156105c9573d6000803e3d6000fd5b505050506040513d60208110156105df57600080fd5b8101908080519060200190929190505050905060003373ffffffffffffffffffffffffffffffffffffffff1663d21220a76040518163ffffffff1660e01b815260040160206040518083038186803b15801561063a57600080fd5b505afa15801561064e573d6000803e3d6000fd5b505050506040513d602081101561066457600080fd5b810190808051906020019092919050505090506106a36000809054906101000a900473ffffffffffffffffffffffffffffffffffffffff168383610d2c565b73ffffffffffffffffffffffffffffffffffffffff163373ffffffffffffffffffffffffffffffffffffffff1614610743576040517f08c379a000000000000000000000000000000000000000000000000000000000815260040180806020018281038252600c8152602001807f556e617574686f72697a6564000000000000000000000000000000000000000081525060200191505060405180910390fd5b60008814806107525750600087145b61075b57600080fd5b60008814610769578161076b565b805b8460008151811061077857fe5b602002602001019073ffffffffffffffffffffffffffffffffffffffff16908173ffffffffffffffffffffffffffffffffffffffff1681525050600088146107c057806107c2565b815b846001815181106107cf57fe5b602002602001019073ffffffffffffffffffffffffffffffffffffffff16908173ffffffffffffffffffffffffffffffffffffffff16815250506000808914610818578261081a565b815b90508073ffffffffffffffffffffffffffffffffffffffff1663095ea7b3600160009054906101000a900473ffffffffffffffffffffffffffffffffffffffff16866040518363ffffffff1660e01b8152600401808373ffffffffffffffffffffffffffffffffffffffff1673ffffffffffffffffffffffffffffffffffffffff16815260200182815260200192505050602060405180830381600087803b1580156108c557600080fd5b505af11580156108d9573d6000803e3d6000fd5b505050506040513d60208110156108ef57600080fd5b810190808051906020019092919050505050600061092f6000809054906101000a900473ffffffffffffffffffffffffffffffffffffffff168688610e87565b60008151811061093b57fe5b602002602001015190506000600160009054906101000a900473ffffffffffffffffffffffffffffffffffffffff1673ffffffffffffffffffffffffffffffffffffffff166338ed173987848a33620d2f006040518663ffffffff1660e01b815260040180868152602001858152602001806020018473ffffffffffffffffffffffffffffffffffffffff1673ffffffffffffffffffffffffffffffffffffffff168152602001838152602001828103825285818151815260200191508051906020019060200280838360005b83811015610a23578082015181840152602081019050610a08565b505050509050019650505050505050600060405180830381600087803b158015610a4c57600080fd5b505af1158015610a60573d6000803e3d6000fd5b505050506040513d6000823e3d601f19601f820116820180604052506020811015610a8a57600080fd5b8101908080516040519392919084640100000000821115610aaa57600080fd5b83820191506020820185811115610ac057600080fd5b8251866020820283011164010000000082111715610add57600080fd5b8083526020830192505050908051906020019060200280838360005b83811015610b14578082015181840152602081019050610af9565b50505050905001604052505050600181518110610b2d57fe5b602002602001015190506000808c14610b465784610b48565b855b90508073ffffffffffffffffffffffffffffffffffffffff1663a9059cbb33856040518363ffffffff1660e01b8152600401808373ffffffffffffffffffffffffffffffffffffffff1673ffffffffffffffffffffffffffffffffffffffff16815260200182815260200192505050602060405180830381600087803b158015610bd157600080fd5b505af1158015610be5573d6000803e3d6000fd5b505050506040513d6020811015610bfb57600080fd5b8101908080519060200190929190505050508073ffffffffffffffffffffffffffffffffffffffff1663a9059cbb328585036040518363ffffffff1660e01b8152600401808373ffffffffffffffffffffffffffffffffffffffff1673ffffffffffffffffffffffffffffffffffffffff16815260200182815260200192505050602060405180830381600087803b158015610c9657600080fd5b505af1158015610caa573d6000803e3d6000fd5b505050506040513d6020811015610cc057600080fd5b81019080805190602001909291905050505050505050505050505050505050565b600160009054906101000a900473ffffffffffffffffffffffffffffffffffffffff1681565b6000809054906101000a900473ffffffffffffffffffffffffffffffffffffffff1681565b6000806000610d3b8585611007565b91509150858282604051602001808373ffffffffffffffffffffffffffffffffffffffff1673ffffffffffffffffffffffffffffffffffffffff1660601b81526014018273ffffffffffffffffffffffffffffffffffffffff1673ffffffffffffffffffffffffffffffffffffffff1660601b8152601401925050506040516020818303038152906040528051906020012060405160200180807fff000000000000000000000000000000000000000000000000000000000000008152506001018373ffffffffffffffffffffffffffffffffffffffff1673ffffffffffffffffffffffffffffffffffffffff1660601b8152601401828152602001807f96e8ac4277198ff8b6f785478aa9a39f403cb768dd02cbee326c3e7da348845f815250602001925050506040516020818303038152906040528051906020012060001c925050509392505050565b6060600282511015610f01576040517f08c379a000000000000000000000000000000000000000000000000000000000815260040180806020018281038252601e8152602001807f556e697377617056324c6962726172793a20494e56414c49445f50415448000081525060200191505060405180910390fd5b815167ffffffffffffffff81118015610f1957600080fd5b50604051908082528060200260200182016040528015610f485781602001602082028036833780820191505090505b5090508281600183510381518110610f5c57fe5b6020026020010181815250506000600183510390505b6000811115610fff57600080610fb287866001860381518110610f9157fe5b6020026020010151878681518110610fa557fe5b602002602001015161117e565b91509150610fd4848481518110610fc557fe5b602002602001015183836112a7565b846001850381518110610fe357fe5b6020026020010181815250505050808060019003915050610f72565b509392505050565b6000808273ffffffffffffffffffffffffffffffffffffffff168473ffffffffffffffffffffffffffffffffffffffff16141561108f576040517f08c379a00000000000000000000000000000000000000000000000000000000081526004018080602001828103825260258152602001806115a26025913960400191505060405180910390fd5b8273ffffffffffffffffffffffffffffffffffffffff168473ffffffffffffffffffffffffffffffffffffffff16106110c95782846110cc565b83835b8092508193505050600073ffffffffffffffffffffffffffffffffffffffff168273ffffffffffffffffffffffffffffffffffffffff161415611177576040517f08c379a000000000000000000000000000000000000000000000000000000000815260040180806020018281038252601e8152602001807f556e697377617056324c6962726172793a205a45524f5f41444452455353000081525060200191505060405180910390fd5b9250929050565b600080600061118d8585611007565b50905060008061119e888888610d2c565b73ffffffffffffffffffffffffffffffffffffffff16630902f1ac6040518163ffffffff1660e01b815260040160606040518083038186803b1580156111e357600080fd5b505afa1580156111f7573d6000803e3d6000fd5b505050506040513d606081101561120d57600080fd5b81019080805190602001909291908051906020019092919080519060200190929190505050506dffffffffffffffffffffffffffff1691506dffffffffffffffffffffffffffff1691508273ffffffffffffffffffffffffffffffffffffffff168773ffffffffffffffffffffffffffffffffffffffff1614611291578082611294565b81815b8095508196505050505050935093915050565b6000808411611301576040517f08c379a000000000000000000000000000000000000000000000000000000000815260040180806020018281038252602c815260200180611576602c913960400191505060405180910390fd5b6000831180156113115750600082115b611366576040517f08c379a00000000000000000000000000000000000000000000000000000000081526004018080602001828103825260288152602001806115c76028913960400191505060405180910390fd5b600061138f6103e861138187876113e490919063ffffffff16565b6113e490919063ffffffff16565b905060006113ba6103e56113ac888761146a90919063ffffffff16565b6113e490919063ffffffff16565b90506113d960018284816113ca57fe5b046114ed90919063ffffffff16565b925050509392505050565b6000808314156113f75760009050611464565b600082840290508284828161140857fe5b041461145f576040517f08c379a00000000000000000000000000000000000000000000000000000000081526004018080602001828103825260218152602001806115ef6021913960400191505060405180910390fd5b809150505b92915050565b6000828211156114e2576040517f08c379a000000000000000000000000000000000000000000000000000000000815260040180806020018281038252601e8152602001807f536166654d6174683a207375627472616374696f6e206f766572666c6f77000081525060200191505060405180910390fd5b818303905092915050565b60008082840190508381101561156b576040517f08c379a000000000000000000000000000000000000000000000000000000000815260040180806020018281038252601b8152602001807f536166654d6174683a206164646974696f6e206f766572666c6f77000000000081525060200191505060405180910390fd5b809150509291505056fe556e697377617056324c6962726172793a20494e53554646494349454e545f4f55545055545f414d4f554e54556e697377617056324c6962726172793a204944454e544943414c5f414444524553534553556e697377617056324c6962726172793a20494e53554646494349454e545f4c4951554944495459536166654d6174683a206d756c7469706c69636174696f6e206f766572666c6f77a26469706673582212202562b51e10b43dd28f83149d526f34c4cd565a1cfc27e7eac6e8815a4ad91dc564736f6c63430006060033",
  "immutableReferences": {},
  "source": "pragma solidity ^0.6.6;\n\nimport './UniswapV2Library.sol';\nimport './interfaces/IUniswapV2Router02.sol';\nimport './interfaces/IUniswapV2Pair.sol';\nimport './interfaces/IUniswapV2Factory.sol';\nimport './interfaces/IERC20.sol';\n\ncontract Arbitrage {\n  address public pancakeFactory;\n  uint constant deadline = 10 days;\n  IUniswapV2Router02 public bakeryRouter;\n\n  constructor(address _pancakeFactory, address _bakeryRouter) public {\n    pancakeFactory = _pancakeFactory;  \n    bakeryRouter = IUniswapV2Router02(_bakeryRouter);\n  }\n\n  function startArbitrage(\n    address token0, \n    address token1, \n    uint amount0, \n    uint amount1\n  ) external {\n    address pairAddress = IUniswapV2Factory(pancakeFactory).getPair(token0, token1);\n    require(pairAddress != address(0), 'This pool does not exist');\n    IUniswapV2Pair(pairAddress).swap(\n      amount0, \n      amount1, \n      address(this), \n      bytes('not empty')\n    );\n  }\n\n  function pancakeCall(\n    address _sender, \n    uint _amount0, \n    uint _amount1, \n    bytes calldata _data\n  ) external {\n    address[] memory path = new address[](2);\n    uint amountToken = _amount0 == 0 ? _amount1 : _amount0;\n    \n    address token0 = IUniswapV2Pair(msg.sender).token0();\n    address token1 = IUniswapV2Pair(msg.sender).token1();\n\n    require(\n      msg.sender == UniswapV2Library.pairFor(pancakeFactory, token0, token1), \n      'Unauthorized'\n    ); \n    require(_amount0 == 0 || _amount1 == 0);\n\n    path[0] = _amount0 == 0 ? token1 : token0;\n    path[1] = _amount0 == 0 ? token0 : token1;\n\n    IERC20 token = IERC20(_amount0 == 0 ? token1 : token0);\n    \n    token.approve(address(bakeryRouter), amountToken);\n\n    uint amountRequired = UniswapV2Library.getAmountsIn(\n      pancakeFactory, \n      amountToken, \n      path\n    )[0];\n    uint amountReceived = bakeryRouter.swapExactTokensForTokens(\n      amountToken, \n      amountRequired, \n      path, \n      msg.sender, \n      deadline\n    )[1];\n\n    IERC20 otherToken = IERC20(_amount0 == 0 ? token0 : token1);\n    otherToken.transfer(msg.sender, amountRequired);\n    otherToken.transfer(tx.origin, amountReceived - amountRequired);\n  }\n}\n",
  "sourcePath": "/Users/bytedance/Documents/code/github/profitable-flashloans-bsc/contracts/Arbitrage.sol",
  "compiler": {
    "name": "solc",
    "version": "0.6.6+commit.6c089d02.Emscripten.clang"
  },
  "schemaVersion": "3.4.1",
  "updatedAt": "2021-06-20T04:20:34.708Z",
  "networkType": "ethereum",
  "devdoc": {
    "methods": {}
  },
  "userdoc": {
    "methods": {}
  }
}